:020000040800F2
:100000000000022031590008795900087959000888
:100010007959000879590008795900080000000052
:1000200000000000000000000000000079590008F6
:100030007959000800000000795900087959000832
:1000400000000000000000000000000000000000B0
:1000500000000000000000000000000000000000A0
:100060000000000000000000000000000000000090
:100070000000000000000000000000000000000080
:100080000000000000000000000000000000000070
:100090000000000000000000000000000000000060
:1000A0000000000000000000000000000000000050
:1000B0000000000000000000000000000000000040
:1000C0000000000000000000000000000000000030
:1000D0000000000000000000000000000000000020
:1000E0000000000000000000000000000000000010
:1000F0000000000000000000000000000000000000
:1001000000000000000000000000000000000000EF
:1001100000000000000000000000000000000000DF
:1001200000000000000000000000000000000000CF
:1001300000000000000000000000000000000000BF
:1001400000000000000000000000000000000000AF
:10015000000000000000000000000000000000009F
:10016000000000000000000000000000000000008F
:10017000000000000000000000000000000000007F
:08018000000000000000000077
:1001880010B5054C237833B9044B13B10448AFF3C9
:1001980000800123237010BD3C04002000000000F3
:1001A800A45A000808B5034B1BB103490348AFF331
:1001B800008008BD0000000040040020A45A000888
:1001C800844641EA000313F003036DD1403A41D35A
:1001D80051F8043B40F8043B51F8043B40F8043B19
:1001E80051F8043B40F8043B51F8043B40F8043B09
:1001F80051F8043B40F8043B51F8043B40F8043BF9
:1002080051F8043B40F8043B51F8043B40F8043BE8
:1002180051F8043B40F8043B51F8043B40F8043BD8
:1002280051F8043B40F8043B51F8043B40F8043BC8
:1002380051F8043B40F8043B51F8043B40F8043BB8
:1002480051F8043B40F8043B51F8043B40F8043BA8
:10025800403ABDD2303211D351F8043B40F8043B48
:1002680051F8043B40F8043B51F8043B40F8043B88
:1002780051F8043B40F8043B103AEDD20C3205D358
:1002880051F8043B40F8043B043AF9D2043208D050
:10029800D2071CBF11F8013B00F8013B01D30B88C2
:1002A80003806046704700BF082A13D38B078DD0A0
:1002B80010F003038AD0C3F10403D21ADB071CBF72
:1002C80011F8013B00F8013B80D331F8023B20F8DC
:1002D800023B7BE7043AD9D3013A11F8013B00F815
:1002E800013BF9D20B7803704B7843708B7883709D
:1002F80060467047F0B585B000AF78600B46FB707C
:100308000023FB81184A7B681C46164604F1300C12
:1003180035462346186859689A68DB680FC5103453
:1003280010366445F4D17B6830331B889BB2FB815F
:10033800FB891A460C490D4800F034F810220B4985
:100348000B48FFF73DFF0B4B0B4910221846FFF7F0
:1003580037FF074A2021722004F090F8002318463E
:100368001437BD46F0BD00BFC4260020F426002087
:10037800BC260020CC260020E42A002080B500AF4F
:1003880004F0B2F804F000F904F054F903F024FF83
:10039800034A32217A2003F039FF03F08DFFFCE78E
:1003A800FD02000880B5ADF5627D00AF07F5627308
:1003B800A3F55F73186007F56273A3F5607319609E
:1003C80007F56273A3F282331A8007F56273A3F20A
:1003D80082331A8807F56273A3F5607307F110007A
:1003E800196803F0B6FD07F1100207F1E0030521D3
:1003F800184603F09EFD07F1E00207F56273A3F5C6
:100408005F731146186800F005F800BF07F56277BA
:10041800BD4680BD80B584B000AF786039600023E8
:10042800FB6072E104F02EF9FA681346DB0013440E
:100438003A6813441978FB689A007B6843F82210DD
:10044800FB689A007B6853F822301946FA6813460D
:10045800DB00134401333A6813441B781B02194329
:10046800FB689A007B6843F82210FB689A007B6857
:1004780053F822301946FA681346DB001344023356
:100488003A6813441B781B041943FB689A007B687D
:1004980043F82210FB689A007B6853F82230FA6808
:1004A8009200C3F311017B6843F8221004F0F6F8B8
:1004B80004F0E8F8FA681346DB00134402333A689C
:1004C80013441B789B08D9B2FB689B005A1C7B68B5
:1004D80043F82210FB689B005A1C7B6853F82230B3
:1004E8001946FA681346DB00134403333A68134489
:1004F8001B789B011943FB689B005A1C7B6843F8D7
:100508002210FB689B005A1C7B6853F8223019465E
:10051800FA681346DB00134404333A6813441B7823
:100528009B031943FB689B005A1C7B6843F8221005
:10053800FB689B005A1C7B6853F82230FA689200CB
:100548000132C3F311017B6843F8221004F0A6F8C6
:1005580004F098F8FA681346DB00134404333A6849
:1005680013441B781B09D9B2FB689B009A1C7B6853
:1005780043F82210FB689B009A1C7B6853F82230D2
:100588001946FA681346DB00134405333A681344E6
:100598001B781B011943FB689B009A1C7B6843F876
:1005A8002210FB689B009A1C7B6853F8223019467E
:1005B800FA681346DB00134406333A6813441B7881
:1005C8001B031943FB689B009A1C7B6843F82210A5
:1005D800FB689B009A1C7B6853F82230FA689200EB
:1005E8000232C3F311017B6843F8221004F056F875
:1005F80004F048F8FA681346DB00134406333A68F7
:1006080013441B789B09D9B2FB689B00DA1C7B68F2
:1006180043F82210FB689B00DA1C7B6853F82230F1
:100628001946FA681346DB00134407333A68134443
:100638001B789B001943FB689B00DA1C7B6843F816
:100648002210FB689B00DA1C7B6853F8223019469D
:10065800FA681346DB00134408333A6813441B78DE
:100668009B021943FB689B00DA1C7B6843F8221045
:10067800FB689B00DA1C7B6853F82230FA6892000A
:100688000332C3F311017B6843F8221004F006F823
:1006980003F0F8FFFB689A007B6853F82230FA6889
:1006A8009200C3F500317B6843F82210FB689B0079
:1006B8005A1C7B6853F82230FA6892000132C3F55D
:1006C80000317B6843F82210FB689B009A1C7B680A
:1006D80053F82230FA6892000232C3F500317B6881
:1006E80043F82210FB689B00DA1C7B6853F8223021
:1006F800FA6892000332C3F500317B6843F8221090
:1007080003F0CCFFFB680133FB60FB683F2B7FF6EF
:1007180089AE00BF00BF1037BD4680BD2DE9F0038C
:1007280086B000AF78604FF000004FF00001C7E9D5
:1007380002010021796122E0786879690144097829
:10074800C9B200200C4605467969C900A1F1200606
:10075800C1F1200005FA01F304FA06F6334324FA3E
:1007680000F0034304FA01F2D7E9020140EA020863
:1007780041EA0309C7E9028979690131796179692F
:100788000729D9D9D7E90223104619461837BD4693
:10079800BDE8F0037047F0B486B000AFF860C7E971
:1007A800002300237B6119E07B69D900D7E9002386
:1007B800C1F12006A1F1200022FA01F403FA06F69D
:1007C800344323FA00F0044323FA01F5FA687B69FD
:1007D8001344E2B21A707B6901337B617B69072B92
:1007E800E2D900BF00BF1837BD46F0BC7047000013
:1007F8002DE9B00FADF68C3D00AF07F68833A3F5B1
:10080800F673186007F68833A3F5F6731B68D3E907
:10081800002307F67831C1E9002307F68833A3F5EA
:10082800F6731B68D3E9022307F53761C1E9002392
:1008380007F68833A3F5F6731B68D3E9042307F694
:100848006831C1E9002307F68833A3F5F6731B68FE
:10085800D3E9062307F53661C1E9002307F6883393
:10086800A3F5F6731B68D3E9082307F65831C1E9E5
:10087800002307F68833A3F5F6731B68D3E90A2328
:1008880007F53561C1E9002307F68833A3F5F67348
:100898001B68D3E90C2307F64831C1E9002307F6A2
:1008A8008833A3F5F6731B68D3E90E2307F5346183
:1008B800C1E9002307F68833A3F5F6731B68D3E96B
:1008C800102307F63831C1E9002307F68833A3F56A
:1008D800F6731B68D3E9122307F53361C1E90023D6
:1008E80007F68833A3F5F6731B68D3E9142307F6D4
:1008F8002831C1E9002307F68833A3F5F6731B688E
:10090800D3E9162307F53261C1E9002307F68833D6
:10091800A3F5F6731B68D3E9182307F61831C1E964
:10092800002307F68833A3F5F6731B68D3E91A2367
:1009380007F53161C1E9002307F68833A3F5F6739B
:100948001B68D3E91C2307F60831C1E9002307F621
:100958008833A3F5F6731B68D3E91E2307F53061C6
:10096800C1E9002307F68833A3F5F6731B68D3E9BA
:10097800202307F6F821C1E9002307F68833A3F5F9
:10098800F6731B68D3E9222307F52F61C1E9002319
:1009980007F68833A3F5F6731B68D3E9242307F613
:1009A800E821C1E9002307F68833A3F5F6731B682D
:1009B800D3E9262307F52E61C1E9002307F688331A
:1009C800A3F5F6731B68D3E9282307F6D821C1E9F4
:1009D800002307F68833A3F5F6731B68D3E92A23A7
:1009E80007F52D61C1E9002307F68833A3F5F673EF
:1009F8001B68D3E92C2307F6C821C1E9002307F6B1
:100A08008833A3F5F6731B68D3E92E2307F52C6109
:100A1800C1E9002307F68833A3F5F6731B68D3E909
:100A2800302307F6B821C1E900230023C7F8843B27
:100A380002F010BF07F67833D3E9000107F53563F4
:100A4800D3E9002380EA020CC7F890C94B40C7F8E5
:100A5800943907F62833D3E9002307F51961D1E95A
:100A6800000184468CEA020CC7F888C94B40C7F8D5
:100A78008C3907F53063D3E9002307F68811D1E9EB
:100A8800000184468CEA020CC7F880C94B40C7F8BD
:100A9800843907F6D823D3E9002307F51861D1E98B
:100AA8000001844682EA0C0CC7F848C54B40C7F8D9
:100AB8004C3507F5A963D3E9002307F52B61C1E994
:100AC800002307F53763D3E9000107F64833D3E974
:100AD800002380EA020CC7F878C94B40C7F87C3974
:100AE80007F53263D3E9002307F67811D1E900014D
:100AF80084468CEA020CC7F870C94B40C7F87439B1
:100B080007F6F823D3E9002307F51761D1E90001B7
:100B180084468CEA020CC7F868C94B40C7F86C39A0
:100B280007F52D63D3E9002307F66811D1E9000121
:100B3800844682EA0C0CC7F840C54B40C7F84435D8
:100B480007F5A863D3E9002307F6A821C1E9002324
:100B580007F66833D3E9000107F53463D3E90023C6
:100B680080EA020CC7F860C94B40C7F8643907F639
:100B78001833D3E9002307F51661D1E9000184464B
:100B88008CEA020CC7F858C94B40C7F85C3907F51E
:100B98002F63D3E9002307F65811D1E900018446F1
:100BA8008CEA020CC7F850C94B40C7F8543907F60D
:100BB800C823D3E9002307F51561D1E9000184466C
:100BC80082EA0C0CC7F838C54B40C7F83C3507F526
:100BD800A763D3E9002307F52A61C1E9002307F5D4
:100BE8003663D3E9000107F63833D3E9002380EAF6
:100BF800020CC7F848C94B40C7F84C3907F53163B0
:100C0800D3E9002307F64811D1E9000184468CEAAC
:100C1800020CC7F840C94B40C7F8443907F6E82327
:100C2800D3E9002307F51461D1E9000184468CEA71
:100C3800020CC7F838C94B40C7F83C3907F52C6394
:100C4800D3E9002307F63811D1E90001844682EA86
:100C58000C0CC7F830C54B40C7F8343507F5A66308
:100C6800D3E9002307F69821C1E9002307F6583392
:100C7800D3E9000107F53363D3E9002380EA020CC6
:100C8800C7F830C94B40C7F8343907F60833D3E9F9
:100C9800002307F51361D1E9000184468CEA020CB0
:100CA800C7F828C94B40C7F82C3907F52E63D3E994
:100CB800002307F62811D1E9000184468CEA020CCA
:100CC800C7F820C94B40C7F8243907F6B823D3E939
:100CD800002307F51261D1E90001844682EA0C0C71
:100CE800C7F828C54B40C7F82C3507F5A563D3E9E5
:100CF800002307F52961C1E90023D7F8A83ADA0FDC
:100D0800D7F8AC3A5B001343C7F81C39D7F8AC3AAC
:100D1800DA0FD7F8A83A5B001343C7F8183907F574
:100D28002963D3E9002307F61811D1E900018446A5
:100D380082EA0C0CC7F820C54B40C7F8243507F5E4
:100D4800A463D3E9002307F68821C1E90023D7F873
:100D5800A03ADA0FD7F8A43A5B001343C7F814395E
:100D6800D7F8A43ADA0FD7F8A03A5B001343C7F8CC
:100D7800103907F52B63D3E9002307F51161D1E991
:100D88000001844682EA0C0CC7F818C54B40C7F826
:100D98001C3507F5A363D3E9002307F52861C1E9EA
:100DA8000023D7F8983ADA0FD7F89C3A5B00134338
:100DB800C7F80C39D7F89C3ADA0FD7F8983A5B009D
:100DC8001343C7F8083907F6A823D3E9002307F621
:100DD8000811D1E90001844682EA0C0CC7F810C555
:100DE8004B40C7F8143507F5A263D3E9002307F68B
:100DF8007821C1E90023D7F8903ADA0FD7F8943A66
:100E08005B001343C7F80439D7F8943ADA0FD7F8D8
:100E1800903A5B001343C7F8003907F52A63D3E912
:100E2800002307F51061D1E90001844682EA0C0C21
:100E3800C7F808C54B40C7F80C3507F5A163D3E9D7
:100E4800002307F52761C1E90023D7F8B03ADA0F84
:100E5800D7F8B43A5B001343C7F8FC38D7F8B43A6C
:100E6800DA0FD7F8B03A5B001343C7F8F83807F63B
:100E78009823D3E9002307F6F801D1E90001844655
:100E880082EA0C0CC7F800C54B40C7F8043507F5D3
:100E9800A063D3E9002307F66821C1E9002307F618
:100EA8007833D3E9000107F68823D3E9002380EAE1
:100EB800020CC7F8F8C44B40C7F8FC3407F59F6329
:100EC800D3E9002307F67831C1E9002307F6783320
:100ED800D3E9002307F52B61C1E9002307F648335E
:100EE800D3E9000107F52863D3E9002380EA020C5F
:100EF800C7F8F0C44B40C7F8F43407F59E63D3E94C
:100F0800002307F64831C1E90023D7F84C3B1A0300
:100F1800D7F8483B1B0D1343C7F8E834D7F8483BCC
:100F28001A03D7F84C3B1B0D1343C7F8EC3407F5ED
:100F38009D63D3E9002307F6A821C1E9002307F63A
:100F48001833D3E9000107F67823D3E9002380EAB0
:100F5800020CC7F8E0C44B40C7F8E43407F59C63BB
:100F6800D3E9002307F61831C1E90023D7F81C3B61
:100F7800DA02D7F8183B5B0D1343C7F8D834D7F813
:100F8800183BDA02D7F81C3B5B0D1343C7F8DC3477
:100F980007F59B63D3E9002307F52A61C1E900231C
:100FA80007F6E823D3E9000107F52763D3E900230F
:100FB80080EA020CC7F8D0C44B40C7F8D43407F510
:100FC8009A63D3E9002307F6E821C1E90023D7F89B
:100FD800E83ADA0AD7F8EC3A5B051343C7F8CC3499
:100FE800D7F8EC3ADA0AD7F8E83A5B051343C7F8BA
:100FF800C83407F59963D3E9002307F69821C1E9B6
:10100800002307F6B823D3E9000107F66823D3E9DC
:10101800002380EA020CC7F8C0C44B40C7F8C434A8
:1010280007F59863D3E9002307F6B821C1E900233F
:10103800D7F8B83A9A0CD7F8BC3A9B031343C7F8C9
:10104800BC34D7F8BC3A9A0CD7F8B83A9B03134388
:10105800C7F8B83407F59763D3E9002307F5296182
:10106800C1E9002307F6A823D3E90023D143C7F831
:10107800F018DB43C7F8F43807F52A63D3E90023EF
:1010880007F50F61D1E9000184460CEA020CC7F8A4
:10109800E8C80B40C7F8EC3807F52B63D3E9002301
:1010A80007F6E801D1E90001844682EA0C0CC7F88A
:1010B800B0C44B40C7F8B43407F59663D3E90023AE
:1010C80007F52661C1E90023C74AD7F8843BDB004E
:1010D8001344D3E9000107F52663D3E9002382EA24
:1010E800000CC7F8A8C44B40C7F8AC3407F59563A3
:1010F800D3E9002307F52661C1E9002307F52A6330
:10110800D3E90023D143C7F8E018DB43C7F8E43834
:1011180007F69823D3E9002307F50E61D1E900010A
:1011280084460CEA020CC7F8D8C80B40C7F8DC386C
:1011380007F6A823D3E9002307F6D801D1E900016F
:10114800844682EA0C0CC7F8A0C44B40C7F8A43404
:1011580007F59463D3E9002307F65821C1E9002372
:1011680007F69823D3E90023D143C7F8D018DB4307
:10117800C7F8D43807F52963D3E9002307F50D61CB
:10118800D1E9000184460CEA020CC7F8C8C80B4034
:10119800C7F8CC3807F52A63D3E9002307F6C80156
:1011A800D1E90001844682EA0C0CC7F898C44B4088
:1011B800C7F89C3407F59363D3E9002307F5256145
:1011C800C1E9002307F52963D3E90023D143C7F810
:1011D800C018DB43C7F8C43807F52B63D3E90023ED
:1011E80007F50C61D1E9000184460CEA020CC7F846
:1011F800B8C80B40C7F8BC3807F69823D3E90023D2
:1012080007F6B801D1E90001844682EA0C0CC7F858
:1012180090C44B40C7F8943407F59263D3E9002390
:1012280007F64821C1E9002307F52B63D3E900231A
:10123800D143C7F8B018DB43C7F8B43807F6A8237A
:10124800D3E9002307F50B61D1E9000184460CEAD4
:10125800020CC7F8A8C80B40C7F8AC3807F52963D3
:10126800D3E9002307F6A801D1E90001844682EA00
:101278000C0CC7F888C44B40C7F88C3407F5916349
:10128800D3E9002307F52461C1E9002307F5366394
:10129800D3E9000107F52763D3E9002380EA020CAC
:1012A800C7F880C44B40C7F8843407F59063D3E986
:1012B800002307F53661C1E90023D7F8603B1A0916
:1012C800D7F8643B1B071343C7F87C34D7F8643B53
:1012D8001A09D7F8603B1B071343C7F8783407F59A
:1012E8008F63D3E9002307F52B61C1E9002307F5D4
:1012F8003363D3E9000107F66823D3E9002380EAC2
:10130800020CC7F870C44B40C7F8743407F58E63F5
:10131800D3E9002307F53361C1E90023D7F8303B4F
:101328001A0BD7F8343B1B051343C7F86C34D7F8AE
:10133800343B1A0BD7F8303B1B051343C7F8683406
:1013480007F58D63D3E9002307F6A821C1E9002337
:1013580007F62833D3E9000107F68823D3E90023E9
:1013680080EA020CC7F860C44B40C7F8643407F53C
:101378008C63D3E9002307F62831C1E90023D7F8A5
:10138800283B5A0FD7F82C3BDB001343C7F85C34D3
:10139800D7F82C3B5A0FD7F8283BDB001343C7F884
:1013A800583407F58B63D3E9002307F52A61C1E9AF
:1013B800002307F6F823D3E9000107F52863D3E9EA
:1013C800002380EA020CC7F850C44B40C7F85434D5
:1013D80007F58A63D3E9002307F6F821C1E900235A
:1013E800D7F8FC3A5A0301E0C05A0008D7F8F83A8F
:1013F800DB0C1343C7F84834D7F8F83A5A03D7F840
:10140800FC3ADB0C1343C7F84C3407F58963D3E97E
:10141800002307F69821C1E9002307F6C823D3E97A
:10142800000107F67823D3E9002380EA020CC7F805
:1014380040C44B40C7F8443407F58863D3E9002318
:1014480007F6C821C1E90023D7F8CC3A5A07D7F8DC
:10145800C83ADB081343C7F83834D7F8C83A5A07EC
:10146800D7F8CC3ADB081343C7F83C3407F5876351
:10147800D3E9002307F52961C1E9002307F6A8236A
:10148800D3E90023D143C7F8A018DB43C7F8A43831
:1014980007F52A63D3E9002307F50A61D1E90001BA
:1014A80084460CEA020CC7F898C80B40C7F89C3869
:1014B80007F52B63D3E9002307F69801D1E900016A
:1014C800844682EA0C0CC7F830C44B40C7F8343461
:1014D80007F58663D3E9002307F63821C1E900231D
:1014E80007F52A63D3E90023D143C7F89018DB43F3
:1014F800C7F8943807F69823D3E9002307F509615C
:10150800D1E9000184460CEA020CC7F888C80B40F0
:10151800C7F88C3807F6A823D3E9002307F6880113
:10152800D1E90001844682EA0C0CC7F828C44B4074
:10153800C7F82C3407F58563D3E9002307F5236141
:10154800C1E9002307F69823D3E90023D143C7F85C
:101558008018DB43C7F8843807F52963D3E90023EB
:1015680007F50861D1E9000184460CEA020CC7F8C6
:1015780078C80B40C7F87C3807F52A63D3E90023FD
:1015880007F67801D1E90001844682EA0C0CC7F815
:1015980020C44B40C7F8243407F58463D3E90023FB
:1015A80007F62821C1E9002307F52963D3E90023B9
:1015B800D143C7F87018DB43C7F8743807F52B63B5
:1015C800D3E9002307F50761D1E9000184460CEA55
:1015D800020CC7F868C80B40C7F86C3807F69823A0
:1015E800D3E9002307F66801D1E90001844682EABD
:1015F8000C0CC7F818C44B40C7F81C3407F58363B4
:10160800D3E9002307F52261C1E9002307F52B631D
:10161800D3E90023D143C7F86018DB43C7F864381F
:1016280007F6A823D3E9002307F50661D1E90001ED
:1016380084460CEA020CC7F858C80B40C7F85C3857
:1016480007F52963D3E9002307F65801D1E900011A
:10165800844682EA0C0CC7F810C44B40C7F814340F
:1016680007F58263D3E9002307F61821C1E90023AF
:1016780007F53763D3E9000107F52863D3E90023A9
:1016880080EA020CC7F808C44B40C7F80C3407F5C9
:101698008163D3E9002307F53761C1E90023D7F84F
:1016A800703BDA0FD7F8743B5B001343C7F8043478
:1016B800D7F8743BDA0FD7F8703B5B001343C7F8D1
:1016C800003407F58063D3E9002307F52B61C1E9EE
:1016D800002307F53463D3E9000107F67823D3E93B
:1016E800002380EA020CC7F8F8C34B40C7F8FC3364
:1016F800D7E9FE2307F53461C1E90023D7F8403B59
:101708009A0ED7F8443B9B011343C7F8F433D7F834
:10171800443B9A0ED7F8403B9B011343C7F8F0337C
:10172800D7E9FC2307F6A821C1E9002307F53163AF
:10173800D3E9000107F52763D3E9002380EA020C07
:10174800C7F8E8C34B40C7F8EC33D7E9FA2307F5E5
:101758003161C1E90023D7F8103BDA09D7F8143B07
:101768005B061343C7F8E433D7F8143BDA09D7F814
:10177800103B5B061343C7F8E033D7E9F82307F5B6
:101788002A61C1E9002307F52E63D3E9000107F6B2
:101798006823D3E9002380EA020CC7F8D8C34B407A
:1017A800C7F8DC33D7E9F62307F52E61C1E9002332
:1017B800D7F8E03A1A0ED7F8E43A1B021343C7F8F1
:1017C800D433D7F8E43A1A0ED7F8E03A1B02134399
:1017D800C7F8D033D7E9F42307F69821C1E90023E5
:1017E80007F6D823D3E9000107F68823D3E90023B5
:1017F80080EA020CC7F8C8C34B40C7F8CC33D7E916
:10180800F22307F6D821C1E90023D7F8D83A9A0B72
:10181800D7F8DC3A9B041343C7F8C433D7F8DC3A4B
:101828009A0BD7F8D83A9B041343C7F8C033D7E9C3
:10183800F02307F52961C1E9002307F6A823D3E9B6
:101848000023D143C7F85018DB43C7F8543807F5CD
:101858002A63D3E9002307F50561D1E9000184462D
:101868000CEA020CC7F848C80B40C7F84C3807F513
:101878002B63D3E9002307F64801D1E90001844628
:1018880082EA0C0CC7F8B8C34B40C7F8BC33D7E999
:10189800EE2307F52161C1E9002307F52A63D3E99F
:1018A8000023D143C7F84018DB43C7F8443807F68C
:1018B8009823D3E9002307F50461D1E900018446A0
:1018C8000CEA020CC7F838C80B40C7F83C3807F6D2
:1018D800A823D3E9002307F63801D1E9000184469B
:1018E80082EA0C0CC7F8B0C34B40C7F8B433D7E949
:1018F800EC2307F60821C1E9002307F69823D3E96A
:101908000023D143C7F83018DB43C7F8343807F54C
:101918002963D3E9002307F50361D1E9000184466F
:101928000CEA020CC7F828C80B40C7F82C3807F592
:101938002A63D3E9002307F62801D1E90001844688
:1019480082EA0C0CC7F8A8C34B40C7F8AC33D7E9F8
:10195800EA2307F52061C1E9002307F52963D3E9E4
:101968000023D143C7F82018DB43C7F8243807F50C
:101978002B63D3E9002307F50261D1E9000184460E
:101988000CEA020CC7F818C80B40C7F81C3807F651
:101998009823D3E9002307F61801D1E9000184460A
:1019A80082EA0C0CC7F8A0C34B40C7F8A433D7E9A8
:1019B800E82307F6F811C1E9002307F52B63D3E9FB
:1019C8000023D143C7F81018DB43C7F8143807F6CB
:1019D800A823D3E9002307F50161D1E90001844672
:1019E8000CEA020CC7F808C80B40C7F80C3807F512
:1019F8002963D3E9002307F60801D1E900018446E9
:101A080082EA0C0CC7F898C34B40C7F89C33D7E957
:101A1800E62307F51F61C1E9002307F65833D3E928
:101A2800000107F66823D3E9002380EA020CC7F80F
:101A380090C34B40C7F89433D7E9E42307F65831ED
:101A4800C1E90023D7F8583B5A09D7F85C3BDB06B5
:101A58001343C7F88C33D7F85C3B5A09D7F8583B7F
:101A6800DB061343C7F88833D7E9E22307F52B6170
:101A7800C1E9002307F53563D3E9000107F6882398
:101A8800D3E9002380EA020CC7F880C34B40C7F8AB
:101A98008433D7E9E02307F53561C1E90023D7F896
:101AA800543B1A01D7F8503B1B0F1343C7F8783340
:101AB800D7F8503B1A01D7F8543B1B0F1343C7F80C
:101AC8007C33D7E9DE2307F6A821C1E9002307F50F
:101AD8003263D3E9000107F52863D3E9002380EADC
:101AE800020CC7F870C34B40C7F87433D7E9DC233E
:101AF80007F53261C1E90023D7F8203B9A0DD7F8E2
:101B0800243B9B021343C7F86C33D7F8243B9A0D48
:101B1800D7F8203B9B021343C7F86833D7E9DA2389
:101B280007F52A61C1E9002307F52F63D3E900010E
:101B380007F67823D3E9002380EA020CC7F860C3CC
:101B48004B40C7F86433D7E9D82307F52F61C1E9BB
:101B58000023D7F8F03A5A0CD7F8F43ADB031343CA
:101B6800C7F85C33D7F8F43A5A0CD7F8F03ADB03E5
:101B78001343C7F85833D7E9D62307F69821C1E9A4
:101B8800002307F52C63D3E9000107F52763D3E9A0
:101B9800002380EA020CC7F850C34B40C7F85433FF
:101BA800D7E9D42307F52C61C1E90023D7F8C43A53
:101BB8001A06D7F8C03A1B0A1343C7F84833D7F8B0
:101BC800C03A1A06D7F8C43A1B0A1343C7F84C336D
:101BD800D7E9D22307F52961C1E9002307F6A8232D
:101BE800D3E90023D143C7F80018DB43C7F804380A
:101BF80007F52A63D3E9002307F50061D1E900015D
:101C080084460CEA020CC7F8F8C70B40C7F8FC3743
:101C180007F52B63D3E9002307F5FF61D1E900013C
:101C2800844682EA0C0CC7F840C34B40C7F84433DB
:101C3800D7E9D02307F6E811C1E9002307F52A639D
:101C4800D3E90023D143C7F8F017DB43C7F8F437CB
:101C580007F69823D3E9002307F5FE61D1E90001CF
:101C680084460CEA020CC7F8E8C70B40C7F8EC3703
:101C780007F6A823D3E9002307F5FD61D1E90001A0
:101C8800844682EA0C0CC7F838C34B40C7F83C338B
:101C9800D7E9CE2307F51E61C1E9002307F698238B
:101CA800D3E90023D143C7F8E017DB43C7F8E4378B
:101CB80007F52963D3E9002307F5FC61D1E90001A1
:101CC80084460CEA020CC7F8D8C70B40C7F8DC37C3
:101CD80007F52A63D3E9002307F5FB61D1E9000181
:101CE800844682EA0C0CC7F830C34B40C7F834333B
:101CF800D7E9CC2307F6D811C1E9002307F52963F2
:101D0800D3E90023D143C7F8D017DB43C7F8D4374A
:101D180007F52B63D3E9002307F5FA61D1E9000140
:101D280084460CEA020CC7F8C8C70B40C7F8CC3782
:101D380007F69823D3E9002307F5F961D1E90001F3
:101D4800844682EA0C0CC7F828C34B40C7F82C33EA
:101D5800D7E9CA2307F51D61C1E9002307F52B63FD
:101D6800D3E90023D143C7F8C017DB43C7F8C4370A
:101D780007F6A823D3E9002307F5F861D1E90001A4
:101D880084460CEA020CC7F8B8C70B40C7F8BC3742
:101D980007F52963D3E9002307F5F761D1E90001C5
:101DA800844682EA0C0CC7F820C34B40C7F824339A
:101DB800D7E9C82307F6C811C1E9002307F6683335
:101DC800D3E9000107F67823D3E9002380EA020C5F
:101DD800C7F818C34B40C7F81C33D7E9C62307F622
:101DE8006831C1E90023D7F86C3B9A07D7F8683BFC
:101DF8009B081343C7F81033D7F8683B9A07D7F8FE
:101E08006C3B9B081343C7F81433D7E9C42307F581
:101E18002B61C1E9002307F63833D3E9000107F540
:101E28002763D3E9002380EA020CC7F808C34B40B4
:101E3800C7F80C33D7E9C22307F63831C1E90023C4
:101E4800D7F83C3BDA05D7F8383B5B0A1343C7F8A9
:101E58000033D7F8383BDA05D7F83C3B5B0A134325
:101E6800C7F80433D7E9C02307F6A821C1E900233E
:101E780007F60833D3E9000107F66823D3E90023FE
:101E880080EA020CC7F8F8C24B40C7F8FC32D7E921
:101E9800BE2307F60831C1E90023D7F80C3BDA0165
:101EA800D7F8083B5B0E1343C7F8F032D7F8083B66
:101EB800DA01D7F80C3B5B0E1343C7F8F432D7E9C5
:101EC800BC2307F52A61C1E9002307F53063D3E98C
:101ED800000107F68823D3E9002380EA020CC7F83B
:101EE800E8C24B40C7F8EC32D7E9BA2307F53061AE
:101EF800C1E90023D7F8043B5A02D7F8003BDB0DB1
:101F08001343C7F8E032D7F8003B5A02D7F8043B2E
:101F1800DB0D1343C7F8E432D7E9B82307F6982155
:101F2800C1E9002307F52D63D3E9000107F528630C
:101F3800D3E9002380EA020CC7F8D8C24B40C7F89F
:101F4800DC32D7E9B62307F52D61C1E90023D7F8BC
:101F5800D03A9A0FD7F8D43A9B001343C7F8D43233
:101F6800D7F8D43A9A0FD7F8D03A9B001343C7F85A
:101F7800D032D7E9B42307F52961C1E9002307F670
:101F8800A823D3E90023D143C7F8B017DB43C7F828
:101F9800B43707F52A63D3E9002307F5F661D1E9D9
:101FA800000184460CEA020CC7F8A8C70B40C7F822
:101FB800AC3707F52B63D3E9002307F5F561D1E9C1
:101FC8000001844682EA0C0CC7F8C8C24B40C7F827
:101FD800CC32D7E9B22307F51C61C1E9002307F524
:101FE8002A63D3E90023D143C7F8A017DB43C7F816
:101FF800A43707F69823D3E9002307F5F461D1E95C
:10200800000184460CEA020CC7F898C70B40C7F8D1
:102018009C3707F6A823D3E9002307F5F361D1E934
:102028000001844682EA0C0CC7F8C0C24B40C7F8CE
:10203800C432D7E9B02307F6B811C1E9002307F67F
:102048009823D3E90023D143C7F89017DB43C7F897
:10205800943707F52963D3E9002307F5F261D1E93D
:10206800000184460CEA020CC7F888C70B40C7F881
:102078008C3707F52A63D3E9002307F5F161D1E925
:102088000001844682EA0C0CC7F8B8C24B40C7F876
:10209800BC32D7E9AE2307F51B61C1E9002307F578
:1020A8002963D3E90023D143C7F88017DB43C7F876
:1020B800843707F52B63D3E9002307F5F061D1E9ED
:1020C800000184460CEA020CC7F878C70B40C7F831
:1020D8007C3707F69823D3E9002307F5EF61D1E9A8
:1020E8000001844682EA0C0CC7F8B0C24B40C7F81E
:1020F800B432D7E9AC2307F6A811C1E9002307F5E4
:102108002B63D3E90023D143C7F87017DB43C7F823
:10211800743707F6A823D3E9002307F5EE61D1E960
:10212800000184460CEA020CC7F868C70B40C7F8E0
:102138006C3707F52963D3E9002307F5ED61D1E989
:102148000001844682EA0C0CC7F8A8C24B40C7F8C5
:10215800AC32D7E9AA2307F51A61C1E9002307F5CC
:102168002663D3E9000107F63823D3E9002380EA80
:10217800020CC7F860C74B40C7F8643707F52163FE
:10218800D3E9002307F5EC61D1E9000184468CEA24
:10219800020CC7F858C74B40C7F85C3707F6E81376
:1021A800D3E9002307F5EB61D1E9000184468CEA05
:1021B800020CC7F850C74B40C7F8543707F51C63E3
:1021C800D3E9002307F5EA61D1E90001844682EAF0
:1021D8000C0CC7F8A0C24B40C7F8A432D7E9A82313
:1021E80007F52B61C1E9002307F65823D3E900015D
:1021F80007F52363D3E9002380EA020CC7F848C730
:102208004B40C7F84C3707F60823D3E9002307F5F6
:10221800E961D1E9000184468CEA020CC7F840C79D
:102228004B40C7F8443707F51E63D3E9002307F589
:10223800E861D1E9000184468CEA020CC7F838C786
:102248004B40C7F83C3707F6B813D3E9002307F526
:10225800E761D1E90001844682EA0C0CC7F898C20C
:102268004B40C7F89C32D7E9A62307F6A821C1E955
:10227800002307F52563D3E9000107F62823D3E9EE
:10228800002380EA020CC7F830C74B40C7F8343740
:1022980007F52063D3E9002307F5E661D1E90001DA
:1022A80084468CEA020CC7F828C74B40C7F82C377D
:1022B80007F6D813D3E9002307F5E561D1E9000152
:1022C80084468CEA020CC7F820C74B40C7F824376D
:1022D80007F51B63D3E9002307F5E461D1E90001A1
:1022E800844682EA0C0CC7F890C24B40C7F8943277
:1022F800D7E9A42307F52A61C1E9002307F6482393
:10230800D3E9000107F52263D3E9002380EA020C30
:10231800C7F818C74B40C7F81C3707F6F813D3E9B6
:10232800002307F5E361D1E9000184468CEA020C39
:10233800C7F810C74B40C7F8143707F51D63D3E932
:10234800002307F5E261D1E9000184468CEA020C1A
:10235800C7F808C74B40C7F80C3707F6A813D3E9E6
:10236800002307F5E161D1E90001844682EA0C0CFB
:10237800C7F888C24B40C7F88C32D7E9A22307F6C2
:102388009821C1E9002307F52463D3E9000107F682
:102398001823D3E9002380EA020CC7F800C74B4092
:1023A800C7F8043707F51F63D3E9002307F5E06191
:1023B800D1E9000184468CEA020CC7F8F8C64B4004
:1023C800C7F8FC3607F6C813D3E9002307F5DF6121
:1023D800D1E9000184468CEA020CC7F8F0C64B40EC
:1023E800C7F8F43607F51A63D3E9002307F5DE6169
:1023F800D1E90001844682EA0C0CC7F880C24B4040
:10240800C7F88432D7E9A02307F52961C1E9002379
:10241800D7F8A83ADA0FD7F8AC3A5B001343C7F8F5
:10242800EC36D7F8AC3ADA0FD7F8A83A5B00134382
:10243800C7F8E83607F52963D3E9002307F5DD6116
:10244800D1E90001844682EA0C0CC7F878C24B40F7
:10245800C7F87C32D7E99E2307F68821C1E9002313
:10246800D7F8A03ADA0FD7F8A43A5B001343C7F8B5
:10247800E436D7F8A43ADA0FD7F8A03A5B0013434A
:10248800C7F8E03607F52B63D3E9002307F5DC61CD
:10249800D1E90001844682EA0C0CC7F870C24B40AF
:1024A800C7F87432D7E99C2307F52861C1E90023EE
:1024B800D7F8983ADA0FD7F89C3A5B001343C7F875
:1024C800DC36D7F89C3ADA0FD7F8983A5B00134312
:1024D800C7F8D83607F6A823D3E9002307F5DB6148
:1024E800D1E90001844682EA0C0CC7F868C24B4067
:1024F800C7F86C32D7E99A2307F67821C1E9002397
:10250800D7F8903ADA0FD7F8943A5B001343C7F834
:10251800D436D7F8943ADA0FD7F8903A5B001343D9
:10252800C7F8D03607F52A63D3E9002307F5DA613F
:10253800D1E90001844682EA0C0CC7F860C24B401E
:10254800C7F86432D7E9982307F52761C1E9002362
:10255800D7F8B03ADA0FD7F8B43A5B001343C7F8A4
:10256800CC36D7F8B43ADA0FD7F8B03A5B00134351
:10257800C7F8C83607F69823D3E9002307F5D961C9
:10258800D1E90001844682EA0C0CC7F858C24B40D6
:10259800C7F85C32D7E9962307F66821C1E900231A
:1025A80007F52663D3E9000107F68823D3E900235A
:1025B80080EA020CC7F850C24B40C7F85432D7E93A
:1025C800942307F52661C1E9002307F52663D3E9BB
:1025D800002307F52B61C1E9002307F52363D3E93D
:1025E800000107F52863D3E9002380EA020CC7F845
:1025F80048C24B40C7F84C32D7E9922307F523610C
:10260800C1E9002307F68833A3F5AA7007F68833D3
:10261800A3F5AC7103681A030B681B0D1343C7F8C5
:1026280040320B681A0303681B0D1343C7F8443282
:10263800D7E9902307F6A821C1E9002307F520630D
:10264800D3E9000107F67823D3E9002380EA020CD6
:10265800C7F838C24B40C7F83C32D7E98E2307F594
:102668002061C1E9002307F68833A3F5C27007F695
:102678008833A3F5C4710368DA020B685B0D134352
:10268800C7F830320B68DA0203685B0D1343C7F8EA
:102698003432D7E98C2307F52A61C1E9002307F50D
:1026A8001D63D3E9000107F52763D3E9002380EA16
:1026B800020CC7F828C24B40C7F82C32D7E98A2346
:1026C80007F51D61C1E9002307F68833A3F5DC701F
:1026D80007F68833A3F5DA710368DA0A0B685B0535
:1026E8001343C7F824320B68DA0A03685B051343FF
:1026F800C7F82032D7E9882307F69821C1E90023D3
:1027080007F51A63D3E9000107F66823D3E9002324
:1027180080EA020CC7F818C24B40C7F81C32D7E948
:10272800862307F51A61C1E9002307F68833A3F564
:10273800F47007F68833A3F5F27103689A0C0B68F6
:102748009B031343C7F814320B689A0C03689B0366
:102758001343C7F81032D7E9842307F52961C1E983
:10276800002307F6A823D3E90023D143C7F8C016EE
:10277800DB43C7F8C43607F52A63D3E9002307F516
:10278800D861D1E9000184460CEA020CC7F8B8C642
:102798000B40C7F8BC3607F52B63D3E9002307F5D0
:1027A800D761D1E90001844682EA0C0CC7F808C257
:1027B8004B40C7F80C32D7E9822307F67831C1E9D4
:1027C8000023D7F8843B0133C14ADB001344D3E923
:1027D800000107F67833D3E9002382EA000CC7F832
:1027E80000C24B40C7F80432D7E9802307F6783196
:1027F800C1E9002307F52A63D3E90023D143C7F8C9
:10280800B016DB43C7F8B43607F69823D3E900239C
:1028180007F5D661D1E9000184460CEA020CC7F835
:10282800A8C60B40C7F8AC3607F6A823D3E900239F
:1028380007F5D561D1E90001844682EA0C0CC7F896
:10284800F8C14B40C7F8FC31D7E97E2307F537615B
:10285800C1E9002307F69823D3E90023D143C7F839
:10286800A016DB43C7F8A43607F52963D3E900238C
:1028780007F5D461D1E9000184460CEA020CC7F8D7
:1028880098C60B40C7F89C3607F52A63D3E900239E
:1028980007F5D361D1E90001844682EA0C0CC7F838
:1028A800F0C14B40C7F8F431D7E97C2307F668310B
:1028B800C1E9002307F52963D3E90023D143C7F809
:1028C8009016DB43C7F8943607F52B63D3E900234A
:1028D80007F5D261D1E9000184460CEA020CC7F879
:1028E80088C60B40C7F88C3607F69823D3E900232F
:1028F80007F5D161D1E90001844682EA0C0CC7F8DA
:10290800E8C14B40C7F8EC31D7E97A2307F53661BF
:10291800C1E9002307F52B63D3E90023D143C7F8A6
:102928008016DB43C7F8843607F6A823D3E90023CB
:1029380007F5D061D1E9000184460CEA020CC7F81A
:1029480078C60B40C7F87C3607F52963D3E900231E
:1029580007F5CF61D1E90001844682EA0C0CC7F87B
:10296800E0C14B40C7F8E431D7E9782307F658317E
:10297800C1E9002307F64823D3E9000107F52763D7
:10298800D3E9002380EA020CC7F8D8C14B40C7F846
:10299800DC31D7E9762307F64821C1E9002307F699
:1029A8008833A3F5A07007F68833A3F59E710368F2
:1029B8001A090B681B071343C7F8D4310B681A09A7
:1029C80003681B071343C7F8D031D7E9742307F509
:1029D8002B61C1E9002307F61823D3E9000107F6A4
:1029E8006823D3E9002380EA020CC7F8C8C14B402A
:1029F800C7F8CC31D7E9722307F61821C1E90023BB
:102A080007F68833A3F5B87007F68833A3F5B671CF
:102A180003681A0B0B681B051343C7F8C4310B680E
:102A28001A0B03681B051343C7F8C031D7E9702395
:102A380007F6A821C1E9002307F52163D3E90001BE
:102A480007F68823D3E9002380EA020CC7F8B8C147
:102A58004B40C7F8BC31D7E96E2307F52161C1E9BE
:102A6800002307F68833A3F5BC7007F68833A3F56F
:102A7800BA7103685A0F0B68DB001343C7F8B43107
:102A88000B685A0F0368DB001343C7F8B031D7E966
:102A98006C2307F52A61C1E9002307F51E63D3E912
:102AA800000107F52863D3E9002380EA020CC7F880
:102AB800A8C14B40C7F8AC31D7E96A2307F51E61B6
:102AC800C1E9002307F68833A3F5D27002E000BFFE
:102AD800C05A000807F68833A3F5D47103685A036F
:102AE8000B68DB0C1343C7F8A0310B685A03036863
:102AF800DB0C1343C7F8A431D7E9682307F69821FC
:102B0800C1E9002307F51B63D3E9000107F6782321
:102B1800D3E9002380EA020CC7F898C14B40C7F8F4
:102B28009C31D7E9662307F51B61C1E9002307F645
:102B38008833A3F5EA7007F68833A3F5EC710368C8
:102B48005A070B68DB081343C7F890310B685A071C
:102B58000368DB081343C7F89431D7E9642307F502
:102B68002961C1E9002307F6A823D3E90023D1434B
:102B7800C7F87016DB43C7F8743607F52A63D3E93C
:102B8800002307F5CE61D1E9000184460CEA020C66
:102B9800C7F868C60B40C7F86C3607F52B63D3E94E
:102BA800002307F5CD61D1E90001844682EA0C0CC7
:102BB800C7F888C14B40C7F88C31D7E9622307F5BD
:102BC8003561C1E9002307F52A63D3E90023D1431E
:102BD800C7F86016DB43C7F8643607F69823D3E9CD
:102BE800002307F5CC61D1E9000184460CEA020C08
:102BF800C7F858C60B40C7F85C3607F6A823D3E9D0
:102C0800002307F5CB61D1E90001844682EA0C0C68
:102C1800C7F880C14B40C7F88431D7E9602307F66D
:102C28004831C1E9002307F69823D3E90023D143AB
:102C3800C7F85016DB43C7F8543607F52963D3E9BC
:102C4800002307F5CA61D1E9000184460CEA020CA9
:102C5800C7F848C60B40C7F84C3607F52A63D3E9CE
:102C6800002307F5C961D1E90001844682EA0C0C0A
:102C7800C7F878C14B40C7F87C31D7E95E2307F520
:102C88003461C1E9002307F52963D3E90023D1435F
:102C9800C7F84016DB43C7F8443607F52B63D3E97A
:102CA800002307F5C861D1E9000184460CEA020C4B
:102CB800C7F838C60B40C7F83C3607F69823D3E95F
:102CC800002307F5C761D1E90001844682EA0C0CAC
:102CD800C7F870C14B40C7F87431D7E95C2307F6D1
:102CE8003831C1E9002307F52B63D3E90023D14329
:102CF800C7F83016DB43C7F8343607F6A823D3E9FC
:102D0800002307F5C661D1E9000184460CEA020CEC
:102D1800C7F828C60B40C7F82C3607F52963D3E94E
:102D2800002307F5C561D1E90001844682EA0C0C4D
:102D3800C7F868C14B40C7F86C31D7E95A2307F583
:102D48003361C1E9002307F65823D3E9000107F5E9
:102D58002863D3E9002380EA020CC7F860C14B401E
:102D6800C7F86431D7E9582307F65821C1E9002389
:102D780007F68833A3F5987007F68833A3F596719C
:102D88000368DA0F0B685B001343C7F85C310B6804
:102D9800DA0F03685B001343C7F85831D7E95623A5
:102DA80007F52B61C1E9002307F62823D3E90001C1
:102DB80007F67823D3E9002380EA020CC7F850C14C
:102DC8004B40C7F85431D7E9542307F62821C1E905
:102DD800002307F68833A3F5B07007F68833A3F508
:102DE800AE7103689A0E0B689B011343C7F84C3108
:102DF8000B689A0E03689B011343C7F84831D7E95B
:102E0800522307F6A821C1E9002307F6F813D3E9EE
:102E1800000107F52763D3E9002380EA020CC7F80D
:102E280040C14B40C7F84431D7E9502307F6F811A1
:102E3800C1E9002307F68833A3F5C87007F688337D
:102E4800A3F5C6710368DA090B685B061343C7F874
:102E58003C310B68DA0903685B061343C7F838315D
:102E6800D7E94E2307F52A61C1E9002307F6C813FD
:102E7800D3E9000107F66823D3E9002380EA020CAE
:102E8800C7F830C14B40C7F83431D7E94C2307F6AF
:102E9800C811C1E9002307F68833A3F5E07007F6E7
:102EA8008833A3F5DE7103681A0E0B681B021343FF
:102EB800C7F82C310B681A0E03681B021343C7F8B6
:102EC8002831D7E94A2307F69821C1E9002307F5F5
:102ED8001C63D3E9000107F68823D3E9002380EABD
:102EE800020CC7F820C14B40C7F82431D7E9482362
:102EF80007F51C61C1E9002307F68833A3F5E470E0
:102F080007F68833A3F5E27103689A0B0B689B04F4
:102F18001343C7F81C310B689A0B03689B041343CF
:102F2800C7F81831D7E9462307F52961C1E9002315
:102F380007F6A823D3E90023D143C7F82016DB43BB
:102F4800C7F8243607F52A63D3E9002307F5C461D7
:102F5800D1E9000184460CEA020CC7F818C60B40F8
:102F6800C7F81C3607F52B63D3E9002307F5C361BF
:102F7800D1E90001844682EA0C0CC7F810C14B4025
:102F8800C7F81431D7E9442307F62831C1E90023EB
:102F980007F52A63D3E90023D143C7F81016DB43AA
:102FA800C7F8143607F69823D3E9002307F5C2615A
:102FB800D1E9000184460CEA020CC7F808C60B40A8
:102FC800C7F80C3607F6A823D3E9002307F5C16133
:102FD800D1E90001844682EA0C0CC7F808C14B40CD
:102FE800C7F80C31D7E9422307F53261C1E900235C
:102FF80007F69823D3E90023D143C7F80016DB432B
:10300800C7F8043607F52963D3E9002307F5C0613B
:10301800D1E9000184460CEA020CC7F8F8C50B4058
:10302800C7F8FC3507F52A63D3E9002307F5BF6124
:10303800D1E90001844682EA0C0CC7F800C14B4074
:10304800C7F80431D7E9402307F61831C1E900234E
:1030580007F52963D3E90023D143C7F8F015DB430B
:10306800C7F8F43507F52B63D3E9002307F5BE61EC
:10307800D1E9000184460CEA020CC7F8E8C50B4008
:10308800C7F8EC3507F69823D3E9002307F5BD61A7
:10309800D1E90001844682EA0C0CC7F8F8C04B401D
:1030A800C7F8FC30D7E93E2307F53161C1E90023B1
:1030B80007F52B63D3E90023D143C7F8E015DB43B9
:1030C800C7F8E43507F6A823D3E9002307F5BC6160
:1030D800D1E9000184460CEA020CC7F8D8C50B40B8
:1030E800C7F8DC3507F52963D3E9002307F5BB6189
:1030F800D1E90001844682EA0C0CC7F8F0C04B40C5
:10310800C7F8F430D7E93C2307F60831C1E90023B2
:1031180007F52463D3E9000107F66823D3E9002300
:1031280080EA020CC7F8E8C04B40C7F8EC30D7E992
:103138003A2307F52461C1E9002307F68833A3F58C
:10314800A47007F68833A3F5A27103685A090B68BF
:10315800DB061343C7F8E4300B685A090368DB063B
:103168001343C7F8E030D7E9382307F52B61C1E9E5
:10317800002307F63823D3E9000107F68823D3E9AB
:10318800002380EA020CC7F8D8C04B40C7F8DC30EF
:10319800D7E9362307F63821C1E9002307F6883333
:1031A800A3F5A67007F68833A3F5A87103681A017A
:1031B8000B681B0F1343C7F8D0300B681A0103685C
:1031C8001B0F1343C7F8D430D7E9342307F6A821D7
:1031D800C1E9002307F60823D3E9000107F52863AE
:1031E800D3E9002380EA020CC7F8C8C04B40C7F8EF
:1031F800CC30D7E9322307F60821C1E9002307F6C6
:103208008833A3F5C07007F68833A3F5BE71036849
:103218009A0D0B689B021343C7F8C4300B689A0DCC
:1032280003689B021343C7F8C030D7E9302307F57A
:103238002A61C1E9002307F6D813D3E9000107F68C
:103248007823D3E9002380EA020CC7F8B8C04B40C2
:10325800C7F8BC30D7E92E2307F6D811C1E90023F7
:1032680007F68833A3F5D87007F68833A3F5D67127
:1032780003685A0C0B68DB031343C7F8B4300B68B8
:103288005A0C0368DB031343C7F8B030D7E92C2383
:1032980007F69821C1E9002307F6A813D3E900012E
:1032A80007F52763D3E9002380EA020CC7F8A8C012
:1032B8004B40C7F8AC30D7E92A2307F6A811C1E973
:1032C800002307F68833A3F5EE7007F68833A3F5D5
:1032D800F07103681A060B681B0A1343C7F8A0307D
:1032E8000B681A0603681B0A1343C7F8A430D7E90A
:1032F800282307F52961C1E9002307F6A823D3E9A4
:103308000023D143C7F8D015DB43C7F8D43507F5F8
:103318002A63D3E9002307F5BA61D1E9000184469D
:103328000CEA020CC7F8C8C50B40C7F8CC3507F53E
:103338002B63D3E9002307F5B961D1E9000184467D
:1033480082EA0C0CC7F898C04B40C7F89C30D7E904
:10335800262307F53061C1E9002307F52A63D3E97D
:103368000023D143C7F8C015DB43C7F8C43507F6B7
:103378009823D3E9002307F5B861D1E90001844611
:103388000CEA020CC7F8B8C50B40C7F8BC3507F6FD
:10339800A823D3E9002307F5B761D1E900018446E2
:1033A80082EA0C0CC7F890C04B40C7F89430D7E9B4
:1033B800242307F6F821C1E9002307F69823D3E967
:1033C8000023D143C7F8B015DB43C7F8B43507F578
:1033D8002963D3E9002307F5B661D1E900018446E2
:1033E8000CEA020CC7F8A8C50B40C7F8AC3507F5BE
:1033F8002A63D3E9002307F5B561D1E900018446C2
:1034080082EA0C0CC7F888C04B40C7F88C30D7E963
:10341800222307F52F61C1E9002307F52963D3E9C2
:103428000023D143C7F8A015DB43C7F8A43507F537
:103438002B63D3E9002307F5B461D1E90001844681
:103448000CEA020CC7F898C50B40C7F89C3507F67C
:103458009823D3E9002307F5B361D1E90001844635
:1034680082EA0C0CC7F880C04B40C7F88430D7E913
:10347800202307F6E821C1E9002307F52B63D3E9E8
:103488000023D143C7F89015DB43C7F8943507F6F6
:10349800A823D3E9002307F5B261D1E900018446E6
:1034A8000CEA020CC7F888C50B40C7F88C3507F53D
:1034B8002963D3E9002307F5B161D1E90001844606
:1034C80082EA0C0CC7F878C04B40FB67D7E91E238B
:1034D80007F52E61C1E9002307F52563D3E900014B
:1034E80007F67823D3E9002380EA020CC7F870C0F6
:1034F8004B407B67D7E91C2307F52561C1E9002309
:1035080007F68833A3F59A7007F68833A3F59C71FC
:1035180003689A070B689B081343BB660B689A07F6
:1035280003689B081343FB66D7E91A2307F52B6149
:10353800C1E9002307F52263D3E9000107F52763F2
:10354800D3E9002380EA020CC7F860C04B407B66D1
:10355800D7E9182307F52261C1E9002307F6883364
:10356800A3F5B27007F68833A3F5B4710368DA05DA
:103578000B685B0A1343BB650B68DA0503685B0AD3
:103588001343FB65D7E9162307F6A821C1E90023F1
:1035980007F51F63D3E9000107F66823D3E9002381
:1035A80080EA020CC7F850C04B407B65D7E914236A
:1035B80007F51F61C1E9002307F68833A3F5CA7030
:1035C80007F68833A3F5CC710368DA010B685B0E44
:1035D8001343BB640B68DA0103685B0E1343FB6497
:1035E800D7E9122307F52A61C1E9002307F6E81392
:1035F800D3E9000107F68823D3E9002380EA020C07
:10360800C7F840C04B407B64D7E9102307F6E811A0
:10361800C1E9002307F68833A3F5CE7007F688338F
:10362800A3F5D07103685A020B68DB0D1343BB6323
:103638000B685A020368DB0D1343FB63D7E90E23BB
:1036480007F69821C1E9002307F6B813D3E900016A
:1036580007F52863D3E9002380EA020CC7F830C0D5
:103668004B407B63D7E90C2307F6B811C1E9002367
:1036780007F68833A3F5E87007F68833A3F5E671F3
:1036880003689A0F0B689B001343FB620B689A0F41
:1036980003689B001343BB62D7E90A2307F5296136
:1036A800C1E9002307F6A823D3E90023D143C7F8CB
:1036B8008015DB43C7F8843507F52A63D3E900236F
:1036C80007F5B061D1E9000184460CEA020CC7F89D
:1036D80078C50B40C7F87C3507F52B63D3E9002381
:1036E80007F5AF61D1E90001844682EA0C0CC7F8FE
:1036F80020C04B407B62D7E9082307F6D821C1E9EF
:10370800002307F52A63D3E90023D143C7F87015CE
:10371800DB43C7F8743507F69823D3E9002307F588
:10372800AE61D1E9000184460CEA020CC7F868C50D
:103738000B40C7F86C3507F6A823D3E9002307F533
:10374800AD61D1E90001844682EA0C0CC7F818C0C3
:103758004B40FB61D7E9062307F52D61C1E900233A
:1037680007F69823D3E90023D143C7F86015DB4354
:10377800C7F8643507F52963D3E9002307F5AC6179
:10378800D1E9000184460CEA020CC7F858C50B4081
:10379800C7F85C3507F52A63D3E9002307F5AB6161
:1037A800D1E90001844682EA0C0CC7F810C04B40EE
:1037B8007B61D7E9042307F6C821C1E9002307F58F
:1037C8002963D3E90023D143C7F85015DB43C7F871
:1037D800543507F52B63D3E9002307F5AA61D1E92E
:1037E800000184460CEA020A01EA030B07F6982353
:1037F800D3E9002382EA0A01B96083EA0B03FB607C
:10380800D7E9022307F52C61C1E9002307F52B63EB
:10381800D3E900236FEA02086FEA030907F6A82331
:10382800D3E9002308EA020409EA030507F5296336
:10383800D3E9002382EA040139606B407B60D7E951
:10384800002307F6B821C1E90023D7F8843B0233E7
:10385800C7F8843BD7F8843B172B7DF7EBA807F60E
:103868008833A3F5F673196807F67833D3E900238C
:10387800C1E9002307F68833A3F5F6731B6803F143
:10388800080107F53763D3E90023C1E9002307F6E8
:103898008833A3F5F6731B6803F1100107F6683344
:1038A800D3E90023C1E9002307F68833A3F5F673AB
:1038B8001B6803F1180107F53663D3E90023C1E952
:1038C800002307F68833A3F5F6731B6803F120017C
:1038D80007F65833D3E90023C1E9002307F68833F4
:1038E800A3F5F6731B6803F1280107F53563D3E9DF
:1038F8000023C1E9002307F68833A3F5F6731B6894
:1039080003F1300107F64833D3E90023C1E9002366
:1039180007F68833A3F5F6731B6803F1380107F53A
:103928003463D3E90023C1E9002307F68833A3F5FC
:10393800F6731B6803F1400107F63833D3E9002317
:10394800C1E9002307F68833A3F5F6731B6803F172
:10395800480107F53363D3E90023C1E9002307F6DB
:103968008833A3F5F6731B6803F1500107F6283373
:10397800D3E90023C1E9002307F68833A3F5F673DA
:103988001B6803F1580107F53263D3E90023C1E945
:10399800002307F68833A3F5F6731B6803F160016B
:1039A80007F61833D3E90023C1E9002307F6883363
:1039B800A3F5F6731B6803F1680107F53163D3E9D2
:1039C8000023C1E9002307F68833A3F5F6731B68C3
:1039D80003F1700107F60833D3E90023C1E9002396
:1039E80007F68833A3F5F6731B6803F1780107F52A
:1039F8003063D3E90023C1E9002307F68833A3F530
:103A0800F6731B6803F1800107F6F823D3E9002356
:103A1800C1E9002307F68833A3F5F6731B6803F1A1
:103A2800880107F52F63D3E90023C1E9002307F6CE
:103A38008833A3F5F6731B6803F1900107F6E823B2
:103A4800D3E90023C1E9002307F68833A3F5F67309
:103A58001B6803F1980107F52E63D3E90023C1E938
:103A6800002307F68833A3F5F6731B6803F1A0015A
:103A780007F6D823D3E90023C1E9002307F68833E2
:103A8800A3F5F6731B6803F1A80107F52D63D3E9C5
:103A98000023C1E9002307F68833A3F5F6731B68F2
:103AA80003F1B00107F6C823D3E90023C1E90023D5
:103AB80007F68833A3F5F6731B6803F1B80107F519
:103AC8002C63D3E90023C1E9002307F68833A3F563
:103AD800F6731B6803F1C00107F6B823D3E9002386
:103AE800C1E9002300BF07F68C37BD46BDE8B00F1B
:103AF800704700BF80B485B000AF78600023FB60DA
:103B08000CE07A68FB68DB00D1184FF000024FF038
:103B18000003C1E90023FB680133FB60FB68182B35
:103B2800EFD97B680022C3F8C82000BF1437BD4610
:103B380080BC70472DE9B04F8EB000AF7862396213
:103B4800FA61BB610023FB6200233B63FB6903F05E
:103B58000703002B39D0FB6903F007037B6311E0EF
:103B6800BA69531CBB617B6B591C7963127807F1E6
:103B780038010B4403F80C2CBB6D013BBB65FB699A
:103B88000133FB617B6B072B02D8BB6D002BE7D1A0
:103B980007F12C031846FCF7C1FD04460D46FA69E7
:103BA8007B6BD31A23F007037A6A1344D3E9000125
:103BB800FA697B6BD31A23F007027B6A134484EA01
:103BC800000885EA0109C3E90089FB69002B75D063
:103BD8003A6AFB69D31ABA6D9A426FD300237B63A2
:103BE80023E07B6BDB00BA6913441846FCF796FDAB
:103BF80080468946FB69DC087B6B2344DB007A6AD4
:103C08001344D3E900017B6B2344DB007A6A134435
:103C180088EA00023A6189EA01027A61D7E9041266
:103C2800C3E900127B6B01337B633A6AFB69D31AE1
:103C3800DB087A6B9A42D4D33A6AFB69D31ABA6919
:103C48001344BB61FA693B6AD31ABA6D1344BB6566
:103C58000023FB61786AFCF7CBFD2FE000237B6330
:103C68001CE07B6BDB00BA6913441846FCF756FD71
:103C78007B6BDB007A6A1344D3E900237C6BE40096
:103C88007D6A2C4480EA0205BD604B40FB60D7E9A1
:103C98000223C4E900237B6B01337B633B6ADB08A7
:103CA8007A6B9A42DDD3BA693B6A1344BB61BA6D39
:103CB8003B6AD31ABB65786AFCF79AFDBA6D3B6A12
:103CC8009A42CBD200237B6320E07B6BDB00BA698E
:103CD80013441846FCF722FDFB69DC087B6B234480
:103CE800DB007A6A1344D3E900237D6B2C44E4009B
:103CF8007D6A2C4480EA02053D604B407B60D7E931
:103D08000023C4E900237B6B01337B63BB6DDB08B5
:103D18007A6B9A42D9D37B6BDB00BA691344BB61D7
:103D28007B6BDB00BA6DD31ABB657B6BDB00FA6972
:103D38001344FB61BB6D002B3DD000237B6308E07F
:103D480007F12C027B6B134400221A707B6B013342
:103D58007B637B6B072BF3D900237B630CE0BA6989
:103D68007B6B1344197807F12C027B6B13440A46CA
:103D78001A707B6B01337B637A6BBB6D9A42EED30F
:103D880007F12C031846FCF7C9FCFB6923F007036D
:103D98007A6A1344D3E90023FC6924F007047D6A96
:103DA8002C4480EA020A81EA030BC4E900ABFA69F1
:103DB800BB6D1344FB61FB6918463837BD46BDE847
:103DC800B08F2DE9F00F88B000AF78613961FA60E3
:103DD800FB72FB68DB08FB61FB6803F00703BB6150
:103DE800FB69DB007A691344D3E90001FB7A0022FE
:103DF80098469146BB69DB00A3F12006C3F1200277
:103E080009FA03F508FA06F6354328FA02F21543CB
:103E180008FA03F4FB69DB007A69134480EA040AB0
:103E280081EA050BC3E900AB3B6923F00703083BB4
:103E38007A691344D3E90023396921F00701083965
:103E4800786901443A6003F100437B60D7E90034A4
:103E5800C1E9003400BF2037BD46BDE8F00F704708
:103E680080B586B000AFF860B9607A603B6021E049
:103E78007868FCF7BDFC00237B610FE07B69DB0001
:103E8800FA68D1187B69DB007A681344D3E9002308
:103E98000846FCF780FC7B6901337B613B68DB08E3
:103EA8007A699A42EAD3FA683B681344FB60BB68B4
:103EB800013BBB60BB68002BDAD100BF00BF1837DD
:103EC800BD4680BD80B582B000AF78607868FFF7E6
:103ED80011FE00BF0837BD4680BD80B586B002AF71
:103EE800F860B9607A60F868FB68D3F8C8207B6826
:103EF8000093BB688821FFF71DFE0246FB68C3F8E4
:103F0800C82000BF1037BD4680BD80B582B000AF65
:103F1800786078687B68D3F8C8201F238821FFF76A
:103F280050FF7B680022C3F8C82000BF0837BD4691
:103F380080BD80B584B000AFF860B9607A607A68F7
:103F48008823B968F868FFF78BFF00BF1037BD46B4
:103F580080BD80B586B000AFF860B9601346FB80BD
:103F6800FB88DBB23B75FB881B0A9BB2DBB27B7517
:103F7800F868FFF7A7FF3022B968F868FFF7ADFFC8
:103F880007F1140302221946F868FFF7A6FFF8683C
:103F9800FFF7BBFF00BF1837BD4680BD80B483B0B4
:103FA80000AF78600B46FB70012318460C37BD46FE
:103FB80080BC704780B584B000AF78600B46FB705A
:103FC800074B1B68DBB2FB7307F10F031A4601218D
:103FD800722000F053FA002318461037BD4680BD02
:103FE800F42A002080B590B000AF78600B46FB70D3
:103FF800002387F83F303AE097F83F3097F83F20A2
:1040080027491B010B44197813465B00134407F139
:1040180040021344343B0A461A7097F83F30204A4E
:104028001B01134404331B6897F83F20D9B2134689
:104038005B00134407F140021344333B0A461A70ED
:1040480097F83F3097F83F2015491B010B440C3374
:10405800197813465B00134407F140021344323BBE
:104068000A461A7097F83F30013387F83F3097F8BF
:104078003F200C4B1B68DBB29A42BDDB094B1B6827
:10408800DBB21A4652001344DBB207F10C021946A0
:10409800722000F0F3F9002318464037BD4680BD72
:1040A800F82A0020F42A002080B487B000AFF86016
:1040B800B9607A6000237B6183E07B695B001A4604
:1040C800BB6813441B78FB747B695B000133BA68D7
:1040D80013441B78BB74BB7C2F2B0AD9BB7C392BB0
:1040E80007D87B697A681344BA7C303AD2B21A701E
:1040F8001DE0BB7C402B0AD9BB7C462B07D87B69CB
:104108007A681344BA7C373AD2B21A700FE0BB7C93
:10411800602B0AD9BB7C662B07D87B697A68134465
:10412800BA7C573AD2B21A7001E001234FE0FB7C07
:104138002F2B13D9FB7C392B10D87B697A68134451
:104148001B785AB2FB7C303B1B015BB2134359B25C
:104158007B697A681344CAB21A702FE0FB7C402B43
:1041680013D9FB7C462B10D87B697A6813441B78DB
:104178005AB2FB7C373B1B015BB2134359B27B69D4
:104188007A681344CAB21A7018E0FB7C602B13D902
:10419800FB7C662B10D87B697A6813441B785AB26B
:1041A800FB7C573B1B015BB2134359B27B697A68AE
:1041B8001344CAB21A7001E0012308E07B69013395
:1041C8007B617A69FB689A42FFF677AF002318464D
:1041D8001C37BD4680BC704780B500AF084A002137
:1041E800762000F013F8074A0021772000F00EF837
:1041F800054A0021792000F009F800BF80BD00BF02
:10420800A53F0008ED3F0008BD3F000880B584B019
:1042180000AF0346B9607A60FB73F87B00237A68C5
:10422800B96800F005F8034618461037BD4680BD4A
:1042380080B485B000AFB9607A601A460346FB7354
:104248001346BB731A4B1B680F2B01DD012329E0B2
:10425800BB68FF2B01D9012324E0154B1B68154AC5
:104268001B011344FA7B1A70114B1B68114A1B017E
:1042780013440433BA681A600D4B1B680D4A1B01BE
:10428800134408337A681A60094B1B68094A1B01F2
:1042980013440C33BA7B1A70054B1B680133044A6C
:1042A8001360002318461437BD4680BC704700BF12
:1042B800F42A0020F82A002080B5ADF5467D00AF2D
:1042C80000F0F8F9034687F80F330023C7F81433D2
:1042D8000EE0684AD7F814331B0113441B7897F88B
:1042E8000F239A420BD0D7F814330133C7F814338D
:1042F800614B1B68D7F814239A42EADB00E000BF41
:104308005D4B1B68D7F814239A4200F0A680594ADF
:10431800D7F814331B0113440C331B7803F0010343
:10432800002B2DD007F54673A3F2113300221A7023
:1043380000F0C0F903461A4607F54673A3F545731E
:104348001A7000F0B7F903461A4607F54673A3F545
:1043580045735A70FA1D3B1D19460120FFF7A4FE4C
:104368000346002B7BD107F54673A3F211331B7864
:104378001946404AD7F814331B0113440433196013
:104388000023C7F810331BE000F094F9034687F8C0
:104398000F3397F80F330A2B63D097F80F330D2B91
:1043A8005FD007F54673A3F50372D7F810331344AB
:1043B80097F80F231A70D7F810330133C7F8103362
:1043C8002C4AD7F814331B01134404331B685A00D2
:1043D800D7F810339A42D7D800F06CF9034687F81B
:1043E8000F3397F80F330A2B03D097F80F330D2BA1
:1043F80039D1204AD7F814331B01134404331B68FE
:10440800184607F10C0207F586731946FFF74CFEAC
:104418000346002B29D1174AD7F814331B0113443C
:1044280008331B681349D7F8142312010A440432CD
:104438001268D1B207F10C021046984703461A4693
:1044480007F54673A3F544731A7007F108031A4673
:1044580001217A2000F012F808E000BF06E000BF52
:1044680004E000BF02E000BF00E000BF07F54677A8
:10447800BD4680BDF82A0020F42A002080B584B00B
:1044880000AF03463A60FB710B46BB71FB791846D7
:1044980000F026F90023FB6019E0FB683A68134432
:1044A8001B781B09DBB21A460E4B9B5C184600F0C2
:1044B80017F9FB683A6813441B7803F00F03094A9D
:1044C800D35C184600F00CF9FB680133FB60BB793C
:1044D800FA689A42E1DB0A2000F002F900BF1037BF
:1044E800BD4680BD0000002080B592B000AF032318
:1044F800BB614FF4A023FB6101237B6202233B6372
:104508004FF480037B630C23BB63C423FB63042346
:104518003B6407237B6407F11803184600F004F98D
:104528000346002B00D0FEE70F237B600123BB600E
:104538000023FB6000233B6100237B613B1D0021BE
:10454800184600F053FB00233B600C4B5B6B0B4A97
:1045580043F040035363094B5B6B03F040033B603C
:104568003B68074B074A1A60054B00225A710448FA
:1045780001F09EF900BF4837BD4680BD00380240B3
:10458800F82B00200008065080B588B000AF4FF423
:10459800C063FB6002233B6101237B610223BB6193
:1045A8000723FB610023BB601E4B1B6B1D4A43F0B6
:1045B800010313631B4B1B6B03F00103BB60BB6858
:1045C80007F10C031946184800F018FC174B184A55
:1045D8001A60164B4FF416425A60144B00229A6028
:1045E800124B0022DA60114B00221A610F4B002295
:1045F8009A610E4B0C225A6100237B60094B5B6C5D
:10460800084A43F010035364064B5B6C03F0100335
:104618007B607B68054800F0BFFF00BF2037BD46C0
:1046280080BD00BF0038024000000240042C00207A
:104638000010014080B586B000AF00233B600F4BEF
:104648001B6B0E4A43F0010313630C4B1B6B03F007
:1046580001033B603B684FF480537B600123BB60E0
:104668000023FB6002233B613B1D1946044800F010
:10467800C5FB00BF1837BD4680BD00BF00380240EB
:104688000000024080B500AF01224FF4805102487B
:1046980000F04EFD00BF80BD0000024080B500AFB5
:1046A80000224FF48051024800F042FD00BF80BD57
:1046B8000000024080B582B000AF00BFF91D41F292
:1046C80088330122054801F058F80346002BF5D13C
:1046D800FB7918460837BD4680BD00BF042C002072
:1046E80080B584B000AF0346FB71FB79FB7307F11B
:1046F8000F0141F288330122034800F0B4FF00BFE4
:104708001037BD4680BD00BF042C002080B400AF28
:10471800044B1B685A1C03490A601846BD4680BCF6
:10472800704700BF942C002080B58EB000AF786031
:1047380000237B637B681B6803F00103002B77D0A1
:10474800934B9B6803F00C03042B0CD0904B9B6895
:1047580003F00C03082B12D18D4B5B6803F4800324
:10476800B3F5800F0BD18A4B1B6803F40033002B81
:104778005DD07B685B68002B59D101232AE27B68F6
:104788005B68B3F5803F06D1814B1B68804A43F4D0
:10479800803313601DE07B685B68B3F5A02F0CD1F4
:1047A8007B4B1B687A4A43F480231360784B1B6861
:1047B800774A43F4803313600BE0754B1B68744AE7
:1047C80023F480331360724B1B68714A23F48023EF
:1047D80013607B685B68002B14D0FFF797FF786342
:1047E80009E0FFF793FF02467B6BD31A694A9342AD
:1047F80001D90323EEE1664B1B6803F40033002B59
:10480800EFD015E0FFF782FF786309E0FFF77EFF3E
:1048180002467B6BD31A5F4A934201D90323D9E13D
:104828005B4B1B6803F40033002BEFD100E000BFA3
:104838007B681B6803F00203002B77D0544B9B68FE
:1048480003F00C03002B0BD0514B9B6803F00C03B7
:10485800082B26D14E4B5B6803F48003002B20D134
:104868004B4B1B6803F00203002B05D07B68DB6809
:10487800012B01D00123ADE1454B1B6823F0F80261
:104888007B681969F8233B633B6B93FAA3F3FB62DC
:10489800FB6AB3FA83F301FA03F33D4913430B6050
:1048A80044E07B68DB68002B2AD03B4B01221A606E
:1048B800FFF72CFF786308E0FFF728FF02467B6BC1
:1048C800D31A022B01D9032384E1314B1B6803F06F
:1048D8000203002BF0D02E4B1B6823F0F8027B68F4
:1048E8001969F823BB62BB6A93FAA3F37B627B6AFC
:1048F800B3FA83F301FA03F3254913430B6015E078
:10490800254B00221A60FFF701FF786308E0FFF7E4
:10491800FDFE02467B6BD31A022B01D9032359E112
:104928001B4B1B6803F00203002BF0D17B681B684C
:1049380003F00803002B39D07B685B69002B16D085
:10494800164B01221A60FFF7E1FE786308E0FFF7D3
:10495800DDFE02467B6BD31A022B01D9032339E112
:104968000B4B5B6F03F00203002BF0D01EE00B4BE8
:1049780000221A60FFF7CAFE786311E0FFF7C6FE4F
:1049880002467B6BD31A022B0AD9032322E100BF0C
:104998000038024000E1F50500004742800E47421A
:1049A8008E4B5B6F03F00203002BE7D17B681B681B
:1049B80003F00403002B7DD00023BB60874B1B6CE6
:1049C800864A43F080531364844B1B6C03F0805376
:1049D800BB60BB68824B1B68814A43F480731360D9
:1049E800FFF794FE786308E0FFF790FE02467B6BC2
:1049F800D31A022B01D90323ECE0794B1B6803F48B
:104A08008073002BF0D07B689B68012B06D1734B19
:104A18001B6F724A43F0010313671CE07B689B68B5
:104A2800052B0CD16D4B1B6F6C4A43F004031367C5
:104A38006A4B1B6F694A43F0010313670BE0674B2E
:104A48001B6F664A23F001031367644B1B6F634AAD
:104A580023F0040313677B689B68002B15D0FFF7CE
:104A680055FE78630AE0FFF751FE02467B6BD31AC6
:104A780041F28832934201D90323ABE0574B1B6FB5
:104A880003F00203002BEED014E0FFF73FFE78633B
:104A98000AE0FFF73BFE02467B6BD31A41F28832ED
:104AA800934201D9032395E04C4B1B6F03F002039B
:104AB800002BEED17B689B69002B00F08A80474B66
:104AC8009B6803F00C03082B00F081807B689B69CE
:104AD800022B64D1434B00221A60FFF717FE78635C
:104AE80009E0FFF713FE02467B6BD31A3E4A934256
:104AF80001D903236EE0394B1B6803F00073002BC8
:104B0800EFD17B68DA697B681B6A1A437B68596A4C
:104B180047F6C0733B613B6993FAA3F3FB60FB68FC
:104B2800B3FA83F301FA03F31A437B689B6A5B08C1
:104B3800591E4FF44033BB61BB6993FAA3F37B6101
:104B48007B69B3FA83F301FA03F31A437B68D96AE2
:104B58004FF070633B623B6A93FAA3F3FB61FB6916
:104B6800B3FA83F301FA03F31C4913434B601D4B5B
:104B780001221A60FFF7CAFD786309E0FFF7C6FD56
:104B880002467B6BD31A184A934201D9032321E0CA
:104B9800124B1B6803F00073002BEFD019E0114B88
:104BA80000221A60FFF7B2FD786309E0FFF7AEFD57
:104BB80002467B6BD31A0C4A934201D9032309E0BE
:104BC800064B1B6803F00073002BEFD101E00123B3
:104BD80000E0002318463837BD4680BD0038024043
:104BE800007000406000474280841E0080B584B099
:104BF80000AF786039600023FB60744B1B6803F0DA
:104C08000F033A689A420CD9704B3A68D2B21A70BC
:104C18006E4B1B6803F00F033A689A4201D00123D8
:104C2800CFE07B681B6803F00203002B08D0684BB9
:104C38009B6823F0F0027B689B68654913438B608F
:104C48007B681B6803F00103002B00F086807B68FB
:104C58005B68012B07D15E4B1B6803F40033002B04
:104C680019D10123ADE07B685B68022B03D07B6818
:104C78005B68032B07D1564B1B6803F00073002BAE
:104C880009D101239DE0524B1B6803F00203002B5E
:104C980001D1012395E04E4B9B6823F003027B680A
:104CA8005B684B4913438B60FFF730FDF8607B6806
:104CB8005B68012B12D10AE0FFF728FD0246FB686A
:104CC800D31A41F28832934201D9032379E0404B49
:104CD8009B6803F00C03042BEED13EE07B685B6815
:104CE800022B12D10AE0FFF711FD0246FB68D31A26
:104CF80041F28832934201D9032362E0344B9B6826
:104D080003F00C03082BEED127E07B685B68032BCC
:104D18001DD10AE0FFF7FAFC0246FB68D31A41F2FC
:104D28008832934201D903234BE0294B9B6803F057
:104D38000C030C2BEED110E0FFF7E8FC0246FB68F1
:104D4800D31A41F28832934201D9032339E0204B28
:104D58009B6803F00C03002BEED11C4B1B6803F07F
:104D68000F033A689A420CD2184B3A68D2B21A70BA
:104D7800164B1B6803F00F033A689A4201D00123CF
:104D88001FE07B681B6803F00403002B08D0104B5E
:104D98009B6823F4E0527B68DB680D4913438B6002
:104DA8007B681B6803F00803002B09D0084B9B683D
:104DB80023F460427B681B69DB00054913438B6061
:104DC800002318461037BD4680BD00BF003C024096
:104DD8000038024080B400AF024B1846BD4680BC84
:104DE800704700BF1075700080B400AF024B1846C2
:104DF800BD4680BC704700BF1075700080B489B094
:104E080000AF7860396000237B6100233B61002399
:104E1800BB610023FB616BE10122FB6902FA03F32A
:104E28007B613B681B687A6913403B613A697B691F
:104E38009A4240F05A813B685B68022B03D03B687A
:104E48005B68122B23D1FB69DA087B68083253F8B8
:104E58002230BB61FB6903F007039B000F2202FAB3
:104E680003F3DB43BA691340BB613B681A69FB690A
:104E780003F007039B0002FA03F3BA691343BB610B
:104E8800FB69DA087B680832B96943F822107B6845
:104E98001B68BB61FB695B00032202FA03F3DB4377
:104EA800BA691340BB613B685B6803F00302FB69A6
:104EB8005B0002FA03F3BA691343BB617B68BA6902
:104EC8001A603B685B68012B0BD03B685B68022B60
:104ED80007D03B685B68112B03D03B685B68122BDB
:104EE80030D17B689B68BB61FB695B00032202FAD7
:104EF80003F3DB43BA691340BB613B68DA68FB69BB
:104F08005B0002FA03F3BA691343BB617B68BA69B1
:104F18009A607B685B68BB610122FB6902FA03F354
:104F2800DB43BA691340BB613B685B681B0903F04C
:104F38000102FB6902FA03F3BA691343BB617B6898
:104F4800BA695A607B68DB68BB61FB695B00032256
:104F580002FA03F3DB43BA691340BB613B689A6802
:104F6800FB695B0002FA03F3BA691343BB617B6810
:104F7800BA69DA603B685B6803F08053002B00F085
:104F8800B4800023FB605F4B5B6C5E4A43F4804354
:104F980053645C4B5B6C03F48043FB60FB685A4AC8
:104FA800FB699B08023352F82330BB61FB6903F0AD
:104FB80003039B000F2202FA03F3DB43BA69134091
:104FC800BB617B68514A93422BD07B68504A93421D
:104FD80025D07B684F4A93421FD07B684E4A934244
:104FE80019D07B684D4A934213D07B684C4A934250
:104FF8000DD07B684B4A934207D07B684A4A93425C
:1050080001D107230EE008230CE006230AE005235C
:1050180008E0042306E0032304E0022302E001235E
:1050280000E00023FA6902F0030292009340BA6993
:105038001343BB613449FB699B080233BA6941F8E1
:1050480023203A4B1B68BB613B69DB43BA691340B9
:10505800BB613B685B6803F48033002B03D0BA69FB
:105068003B691343BB61314ABB6913602F4B5B68D3
:10507800BB613B69DB43BA691340BB613B685B6852
:1050880003F40033002B03D0BA693B691343BB61B7
:10509800264ABB695360254B9B68BB613B69DB4370
:1050A800BA691340BB613B685B6803F48013002B4B
:1050B80003D0BA693B691343BB611C4ABB6993605F
:1050C8001A4BDB68BB613B69DB43BA691340BB61C0
:1050D8003B685B6803F40013002B03D0BA693B6993
:1050E8001343BB61114ABB69D360FB690133FB61A0
:1050F800FB690F2B7FF690AE00BF00BF2437BD467B
:1051080080BC70470038024000380140000002406F
:105118000004024000080240000C02400010024057
:105128000014024000180240001C0240003C0140EC
:1051380080B483B000AF78600B467B8013467B70E9
:105148007B78002B03D07A887B689A6103E07B88A0
:105158001A047B689A6100BF0C37BD4680BC704753
:10516800B0B584B000AF78600023FB607B681B6833
:105178001B69FB60FB6823F44053FB607B68DB68BA
:10518800FA681343FB607B681B68FA681A617B68DE
:105198001B68DB68FB60FB6823F4164323F00C03F1
:1051A800FB607B689A687B681B691A437B685B694C
:1051B8001A437B68DB691343FA681343FB607B6817
:1051C8001B68FA68DA607B681B685B69FB60FB68D0
:1051D80023F44073FB607B689B69FA681343FB60A8
:1051E8007B681B68FA685A617B68DB69B3F5004F16
:1051F80040F0E4807B681B68AB4A934204D07B682C
:105208001B68AA4A93426CD1FFF7EEFD024613468B
:105218009B0013449A001A447B685B685B00B2FBEE
:10522800F3F3A34AA2FB03235B091C01FFF7DCFD90
:10523800024613469B0013449A001A447B685B6835
:105248005B00B2FBF3F5FFF7CFFD024613469B0068
:1052580013449A001A447B685B685B00B2FBF3F363
:10526800934AA2FB03235B09642202FB03F3EB1AB4
:10527800DB0032338E4AA2FB03235B095B0003F495
:10528800F8731C44FFF7B0FD024613469B00134415
:105298009A001A447B685B685B00B2FBF3F5FFF782
:1052A800A3FD024613469B0013449A001A447B68E8
:1052B8005B685B00B2FBF3F37D4AA2FB03235B0947
:1052C800642202FB03F3EB1ADB003233784AA2FBB9
:1052D80003235B0903F007027B681B6822449A607A
:1052E80054E1FFF777FD024613469B0013449A00EA
:1052F8001A447B685B685B00B2FBF3F36C4AA2FB61
:1053080003235B091C01FFF765FD024613469B005A
:1053180013449A001A447B685B685B00B2FBF3F5A0
:10532800FFF758FD024613469B0013449A001A449F
:105338007B685B685B00B2FBF3F35D4AA2FB032367
:105348005B09642202FB03F3EB1ADB003233584A91
:10535800A2FB03235B095B0003F4F8731C44FFF70B
:1053680039FD024613469B0013449A001A447B6891
:105378005B685B00B2FBF3F5FFF72CFD02461346B2
:105388009B0013449A001A447B685B685B00B2FB7D
:10539800F3F3474AA2FB03235B09642202FB03F3EE
:1053A800EB1ADB003233424AA2FB03235B0903F00A
:1053B80007027B681B6822449A60E7E07B681B68E9
:1053C800394A934204D07B681B68384A934271D1AA
:1053D800FFF70AFD024613469B0013449A001A443D
:1053E8007B685B689B00B2FBF3F3314AA2FB0323A3
:1053F8005B091C01FFF7F8FC024613469B001344A7
:105408009A001A447B685B689B00B2FBF3F5FFF7D0
:10541800EBFC024613469B0013449A001A447B682F
:105428005B689B00B2FBF3F3214AA2FB03235B09F1
:10543800642202FB03F3EB1A1B0132331C4AA2FB62
:1054480003235B0903F0F0031C44FFF7CDFC02467D
:1054580013469B0013449A001A447B685B689B00C0
:10546800B2FBF3F5FFF7C0FC024613469B0013445A
:105478009A001A447B685B689B00B2FBF3F30C4A02
:10548800A2FB03235B09642202FB03F3EB1A1B0153
:105498003233074AA2FB03235B0903F00F027B6840
:1054A8001B6822449A6071E000100140001401401A
:1054B8001F85EB51FFF78EFC024613469B001344F1
:1054C8009A001A447B685B689B00B2FBF3F3314A8D
:1054D800A2FB03235B091C01FFF77CFC0246134671
:1054E8009B0013449A001A447B685B689B00B2FBDC
:1054F800F3F5FFF76FFC024613469B0013449A002E
:105508001A447B685B689B00B2FBF3F3214AA2FB59
:1055180003235B09642202FB03F3EB1A1B013233FA
:105528001C4AA2FB03235B0903F0F0031C44FFF7AA
:1055380051FC024613469B0013449A001A447B68A8
:105548005B689B00B2FBF3F5FFF744FC0246134689
:105558009B0013449A001A447B685B689B00B2FB6B
:10556800F3F30C4AA2FB03235B09642202FB03F357
:10557800EB1A1B013233074AA2FB03235B0903F032
:105588000F027B681B6822449A60FFE700BF103750
:10559800BD46B0BD1F85EB5180B582B000AF7860C5
:1055A8007B68002B01D101233CE07B6893F83930FC
:1055B800DBB2002B03D17B68002283F838207B689C
:1055C800242283F839207B681B68DA687B681B68AB
:1055D80022F40052DA607868FFF7C2FD7B681B6826
:1055E8001A697B681B6822F490421A617B681B6801
:1055F8005A697B681B6822F02A025A617B681B681B
:10560800DA687B681B6842F40052DA607B68002223
:10561800DA637B68202283F839207B68202283F8AC
:105628003A20002318460837BD4680BD80B485B0AF
:1056380000AFF860B9601346FB7100BFFB681B68D8
:105648001A68BB681340BA689A420CBF012300234A
:10565800DBB21A46FB799A42F0D000231846143779
:10566800BD4680BC704780B586B000AFF860B960B1
:105678003B601346FB80FB6893F83930DBB2202B84
:1056880076D1BB68002B02D0FB88002B01D1012307
:105698006FE0FB6893F83830012B01D1022368E0F2
:1056A800FB68012283F83820FB680022DA63FB6874
:1056B800212283F83920FB68FA889A84FB68FA88E3
:1056C800DA843CE0FB68DB8C9BB2013B9AB2FB6856
:1056D800DA84FB689B68B3F5805F1FD100228021C4
:1056E800F868FFF7A3FF0346002B01D0032340E02F
:1056F800BB687B617B691B881A46FB681B68C2F321
:1057080008025A60FB681B69002B03D1BB6802338F
:10571800BB6014E0BB680133BB6010E0002280214D
:10572800F868FFF783FF0346002B01D0032320E02E
:10573800BB685A1CBA601A78FB681B685A60FB6819
:10574800DB8C9BB2002BBDD100224021F868FFF70B
:105758006DFF0346002B01D003230AE0FB682022DB
:1057680083F83920FB68002283F83820002300E002
:10577800022318461837BD4680BD80B586B000AFF5
:10578800F860B9603B601346FB80FB6893F83A30D9
:10579800DBB2202B40F08780BB68002B02D0FB884F
:1057A800002B01D101237FE0FB6893F83830012BEF
:1057B80001D1022378E0FB68012283F83820FB68D6
:1057C8000022DA63FB68222283F83A20FB68FA8811
:1057D8009A85FB68FA88DA8556E0FB68DB8D9BB210
:1057E800013B9AB2FB68DA85FB689B68B3F5805F7A
:1057F80028D100222021F868FFF718FF0346002B64
:1058080001D0032350E0BB687B61FB681B69002B58
:105818000CD1FB681B685B689BB2C3F308039AB2A0
:105828007B691A80BB680233BB602DE0FB681B688C
:105838005B689BB2DBB29AB27B691A80BB680133A2
:10584800BB6021E000222021F868FFF7EFFE034645
:10585800002B01D0032327E0FB681B69002B08D12C
:10586800FB681B685968BB685A1CBA60CAB21A70D0
:105878000AE0FB681B685B68DAB2BB68591CB96050
:1058880002F07F02D2B21A70FB68DB8D9BB2002B4C
:10589800A3D1FB68202283F83A20FB68002283F812
:1058A8003820002300E0022318461837BD4680BD83
:1058B80080B582B000AF78607B68002B01D10123EE
:1058C80025E07B681B79012B01D102231FE07B684F
:1058D80001221A717B685B79DBB2002B05D17B68EA
:1058E80000221A71786800F016F87B6802225A7153
:1058F8007B681B681A687B681B6842F004021A60A0
:105908007B6801225A717B6800221A7100231846AD
:105918000837BD4680BD80B483B000AF786000BF53
:105928000C37BD4680BC7047002103E00B4B5B5829
:10593800435004310A480B4B42189A42F6D30A4A9C
:1059480002E0002313600432084B9A42F9D3AFF304
:10595800008000F00FF8FAF711FDFEE7905B0008F1
:10596800000000203C0400203C0400209C2C002067
:10597800FEE7000070B50D4E0D4D761BB61006D033
:10598800002455F8043B01349847A642F9D1094E42
:10599800094D761B00F082F8B61006D0002455F8A1
:1059A800043B01349847A642F9D170BD845B0008D6
:1059B800845B00088C5B0008845B0008024B13B111
:1059C800024800F005B8704700000000E5590008DB
:1059D800002301461A46184600F01AB838B5084B95
:1059E800084D5B1B9C1007D0043B1D44013C55F837
:1059F80004399847002CF9D1BDE8384000F054B874
:105A0800905B00088C5B0008704700BF704700BFC0
:105A18002DE9F047DFF87CA00646DAF80000984642
:105A28000F469146FFF7F0FF1B4B1B68D3F8484120
:105A380024B365681F2D26DC5EB96B1C0235DAF8C5
:105A48000000636044F82570FFF7E0FF0020BDE820
:105A5800F08704EB85010123C1F88890D4F88821E8
:105A6800AB401A43022EC4F88821C1F80881E4D15A
:105A7800D4F88C211343C4F88C31DEE703F5A674FF
:105A8800C3F84841D5E7DAF80000FFF7BFFF4FF049
:105A9800FF30DCE738040020805B0008F8B500BF61
:105AA800F8BC08BC9E467047F8B500BFF8BC08BCF7
:045AB8009E4670474F
:105AC00001000000000000008280000000000000D3
:105AD0008A800000000000800080008000000080BC
